:100000000C945D000C9485000C9485000C94850084
:100010000C9485000C9485000C9485000C9485004C
:100020000C9485000C9485000C9485000C9485003C
:100030000C9485000C9485000C9485000C9485002C
:100040000C94ED020C9485000C94BB020C94950268
:100050000C9485000C9485000C9485000C9485000C
:100060000C9485000C9485000000000024002700FB
:100070002A0000000000250028002B0004040404CE
:100080000404040402020202020203030303030342
:10009000010204081020408001020408102001021F
:1000A00004081020000000080002010000030407FB
:1000B0000000000000000000400511241FBECFEF2B
:1000C000D8E0DEBFCDBF11E0A0E0B1E0EEE4FFE09C
:1000D00002C005900D92A236B107D9F722E0A2E640
:1000E000B1E001C01D92A831B207E1F710E0CDE503
:1000F000D0E004C02197FE010E949F07CC35D107B4
:10010000C9F70E9437030C94A5070C940000E7EA96
:10011000F0E02491E3E9F0E09491EFE7F0E0E4917E
:10012000EE23C9F0222339F0233001F1A8F4213065
:1001300019F1223029F1F0E0EE0FFF1FEE58FF4FCA
:10014000A591B4912FB7F894EC91811126C09095A8
:100150009E239C932FBF08952730A9F02830C9F023
:10016000243049F7209180002F7D03C0209180002A
:100170002F7720938000DFCF24B52F7724BDDBCFEE
:1001800024B52F7DFBCF2091B0002F772093B000B6
:10019000D2CF2091B0002F7DF9CF9E2BDACFAF9236
:1001A000BF92CF92DF92EF92FF920F931F93CF9364
:1001B000DF936C017B018B01040F151FEB015E01C6
:1001C000AE18BF08C017D10759F06991D601ED915B
:1001D000FC910190F081E02DC6010995892B79F7FA
:1001E000C501DF91CF911F910F91FF90EF90DF90AC
:1001F000CF90BF90AF900895FC01538D448D252F73
:1002000030E0842F90E0821B930B541710F0CF96B0
:10021000089501970895FC01918D828D981761F0E2
:10022000A28DAE0FBF2FB11D5D968C91928D9F5FF9
:100230009F73928F90E008958FEF9FEF0895FC01D8
:10024000918D828D981731F0828DE80FF11D858D8B
:1002500090E008958FEF9FEF0895FC01918D228D1E
:10026000892F90E0805C9F4F821B91098F739927A3
:1002700008958BE791E00E942D0121E0892B09F47C
:1002800020E0822F089580E090E0892B29F00E94E1
:10029000390181110C9400000895FC01A48DA80F70
:1002A000B92FB11DA35ABF4F2C91848D90E00196B8
:1002B0008F739927848FA689B7892C93A089B189D8
:1002C0008C91837080648C93938D848D981306C079
:1002D0000288F389E02D80818F7D80830895EF92DD
:1002E000FF920F931F93CF93DF93EC0181E0888FF0
:1002F0009B8D8C8D98131AC0E889F989808185FFC0
:1003000015C09FB7F894EE89FF896083E889F98961
:1003100080818370806480839FBF81E090E0DF9163
:10032000CF911F910F91FF90EF900895F62E0B8DB6
:1003300010E00F5F1F4F0F731127E02E8C8D8E1171
:100340000CC00FB607FCFACFE889F989808185FFD8
:10035000F5CFCE010E944D01F1CFEB8DEC0FFD2FBB
:10036000F11DE35AFF4FF0829FB7F8940B8FEA8993
:10037000FB8980818062CFCFCF93DF93EC01888DA2
:100380008823B9F0AA89BB89E889F9898C9185FD10
:1003900003C0808186FD0DC00FB607FCF7CF8C919E
:1003A00085FFF2CF808185FFEDCFCE010E944D0108
:1003B000E9CFDF91CF910895CF93DF9390E0FC01D7
:1003C000E057FF4F249184589F4FFC01849188236C
:1003D000D1F090E0880F991FFC01E859FF4FA591DB
:1003E000B491FC01EE58FF4FC591D49161110EC03C
:1003F0009FB7F8948C91E22FE0958E238C932881FF
:10040000E223E8839FBFDF91CF9108958FB7F894DF
:10041000EC91E22BEC938FBFF6CF8E5080648093EB
:100420007C0080917A00806480937A0080917A00C9
:1004300086FDFCCF809178009091790008953FB7B8
:10044000F8948091670190916801A0916901B09141
:100450006A0126B5A89B05C02F3F19F00196A11D82
:10046000B11D3FBFBA2FA92F982F8827BC01CD01FE
:10047000620F711D811D911D42E0660F771F881F5D
:10048000991F4A95D1F70895FC0101900020E9F7E2
:100490003197AF01481B590BBC018BE791E00C94DD
:1004A000CF008F929F92AF92BF920F931F93CF93E3
:1004B000DF93CDB7DEB7A1970FB6F894DEBF0FBEBE
:1004C000CDBF19A2423008F44AE08E010F5D1F4FE4
:1004D000842E912CB12CA12CA50194010E947D07A2
:1004E000E62FB901CA01EA30F4F4E05DD801EE93D9
:1004F0008D01232B242B252B79F790E080E010979A
:1005000019F0CD010E944402A1960FB6F894DEBF07
:100510000FBECDBFDF91CF911F910F91BF90AF90D4
:100520009F908F900895E95CE1CF1F920F920FB6D4
:100530000F9211242F933F934F935F936F937F9369
:100540008F939F93AF93BF93EF93FF938BE791E0CC
:100550000E944D01FF91EF91BF91AF919F918F91BB
:100560007F916F915F914F913F912F910F900FBEAF
:100570000F901F9018951F920F920FB60F92112493
:100580002F938F939F93EF93FF93E0918B01F091C3
:100590008C018081E0919101F091920182FD1BC05C
:1005A0009081809194018F5F8F73209195018217C4
:1005B00041F0E0919401F0E0E558FE4F958F809373
:1005C0009401FF91EF919F918F912F910F900FBE0A
:1005D0000F901F9018958081F4CF1F920F920FB645
:1005E0000F9211242F933F938F939F93AF93BF93B9
:1005F0008091630190916401A0916501B0916601C1
:100600003091620123E0230F2D3758F50196A11D8B
:10061000B11D209362018093630190936401A093C4
:100620006501B09366018091670190916801A09186
:100630006901B0916A010196A11DB11D8093670106
:1006400090936801A0936901B0936A01BF91AF9143
:100650009F918F913F912F910F900FBE0F901F9000
:10066000189526E8230F0296A11DB11DD2CF7894CC
:1006700084B5826084BD84B5816084BD85B58260A7
:1006800085BD85B5816085BD80916E008160809358
:100690006E001092810080918100826080938100C1
:1006A00080918100816080938100809180008160D1
:1006B000809380008091B10084608093B10080912C
:1006C000B00081608093B00080917A008460809354
:1006D0007A0080917A00826080937A0080917A001B
:1006E000816080937A0080917A00806880937A009C
:1006F0001092C10061E083E00E94DC0160E08FE0C5
:100700000E94DC0160E08EE00E94DC01E0918B0140
:10071000F0918C0182E08083E0918B01F0918C015B
:100720001082E0918701F09188011082E0918901A7
:10073000F0918A0180E1808310929301E0918F0112
:10074000F091900186E08083E0918D01F0918E011F
:10075000808180618083E0918D01F0918E018081A4
:1007600088608083E0918D01F0918E0180818068A6
:100770008083E0918D01F0918E0180818F7D808357
:100780000E941F02605F784D8F4F9F4F60936B01F7
:1007900070936C0180936D0190936E0107EA10E0F5
:1007A000C0E0D0E08EE00E940D02BC01990F880BE2
:1007B000990B0E94840620E030E040EA50E40E9459
:1007C000100720E030E040E85AE30E9410076B0178
:1007D0007C01C0927701D0927801E0927901F09289
:1007E0007A018FE00E940D02BC01990F880B990BD2
:1007F0000E94840620E030E040EA50E40E941007A6
:1008000020E030E040E85AE30E9410074B015C0111
:10081000AC019B01C701B6010E946D052B013C0193
:100820002AE037ED43EA5BE3609173017091740154
:1008300080917501909176010E9410076B017C01F7
:100840002AE037ED43EA5BE3C301B2010E941007DF
:100850009B01AC01C701B6010E946E0520E336E49E
:1008600042E651EC0E94100720916F013091700117
:1008700040917101509172010E946E056B017C01E3
:10088000C0926F01D0927001E0927101F0927201FA
:1008900040927301509274016092750170927601DA
:1008A00023E43BE749E351E4C501B4010E9410078A
:1008B000A70196010E946E05905820E030E040ECC0
:1008C00050E40E94DA0520E030E040EA50E40E9463
:1008D000DA0520E030E04FE753E40E9410070E9461
:1008E0004C066B015B0161E083E00E94DC01C114F6
:1008F000D10409F05DC080E00E9487000E941F02C1
:10090000C0906B01D0906C01E0906D01F0906E0191
:10091000C616D706E806F90608F092C082E191E013
:100920000E9444024AE064E670E080E090E00E94A9
:1009300051026EE28BE791E00E946F014AE060E0B5
:1009400070E0CB010E9451024AE060E070E0CB0110
:100950000E9451028FE291E00E9444028FE591E0F3
:100960000E9444020E941F024B015C0184EFC82ECA
:10097000DD24D394E12CF12C0E941F02681979091F
:100980008A099B09683E734081059105A8F321E01F
:10099000C21AD108E108F10888EE880E83E0981E9B
:1009A000A11CB11CC114D104E104F10429F7B6CF94
:1009B0002FEFC216D10411F481E09ECFF80184918B
:1009C000833021F148F48130B9F08230D1F0F0E881
:1009D000AF16B1048CF78FCF873011F1883041F119
:1009E0008430A9F780918000806280938000D0924B
:1009F0008B00C0928A0082CF84B5806884BDC7BC5A
:100A00007DCF84B5806284BDC8BC78CF80918000E2
:100A1000806880938000D0928900C09288006ECF59
:100A20008091B00080688093B000C092B30066CF20
:100A30008091B00080628093B000C092B4005ECF1D
:100A40000E941F026C157D058E059F05C8F3F0E11D
:100A5000CF0EF7E2DF1EE11CF11CC0926B01D092B9
:100A60006C01E0926D01F0926E01209709F49ACE2C
:100A70000E943901882309F495CE0E94000092CE8D
:100A8000EBE7F1E01382128288EE93E0A0E0B0E0A1
:100A900084839583A683B78384E091E091838083E8
:100AA00085EC90E09587848784EC90E09787868733
:100AB00080EC90E0918B808B81EC90E0938B828B2B
:100AC00082EC90E0958B848B86EC90E0978B868B04
:100AD000118E128E138E148E08955058BB27AA279C
:100AE0000E9485050C94D6060E94C80638F00E9424
:100AF000CF0620F039F49F3F19F426F40C94C50674
:100B00000EF4E095E7FB0C94BF06E92F0E94E70680
:100B100058F3BA17620773078407950720F079F432
:100B2000A6F50C9409070EF4E0950B2EBA2FA02D14
:100B30000B01B90190010C01CA01A0011124FF278A
:100B4000591B99F0593F50F4503E68F11A16F04085
:100B5000A22F232F342F4427585FF3CF4695379584
:100B60002795A795F0405395C9F77EF41F16BA0B49
:100B7000620B730B840BBAF09150A1F0FF0FBB1FF7
:100B8000661F771F881FC2F70EC0BA0F621F731F40
:100B9000841F48F4879577956795B795F7959E3F9D
:100BA00008F0B0CF9395880F08F09927EE0F97952E
:100BB000879508950E94EE050C94D6060E94CF06F4
:100BC00058F00E94C80640F029F45F3F29F00C94C9
:100BD000BF0651110C940A070C94C5060E94E70643
:100BE00068F39923B1F3552391F3951B550BBB275C
:100BF000AA2762177307840738F09F5F5F4F220FA1
:100C0000331F441FAA1FA9F335D00E2E3AF0E0E897
:100C100032D091505040E695001CCAF72BD0FE2FE1
:100C200029D0660F771F881FBB1F26173707480775
:100C3000AB07B0E809F0BB0B802DBF01FF2793582D
:100C40005F4F3AF09E3F510578F00C94BF060C942C
:100C50000A075F3FE4F3983ED4F38695779567954E
:100C6000B795F7959F5FC9F7880F911D9695879562
:100C700097F90895E1E0660F771F881FBB1F621781
:100C800073078407BA0720F0621B730B840BBA0B3F
:100C9000EE1F88F7E09508950E9453066894B111FD
:100CA0000C940A0708950E94EF0688F09F5798F069
:100CB000B92F9927B751B0F0E1F0660F771F881F61
:100CC000991F1AF0BA95C9F714C0B13091F00E947B
:100CD0000907B1E008950C940907672F782F88273A
:100CE000B85F39F0B93FCCF3869577956795B395A2
:100CF000D9F73EF490958095709561957F4F8F4F11
:100D00009F4F0895E89409C097FB3EF49095809515
:100D1000709561957F4F8F4F9F4F9923A9F0F92FC1
:100D200096E9BB279395F695879577956795B7953F
:100D3000F111F8CFFAF4BB0F11F460FF1BC06F5F25
:100D40007F4F8F4F9F4F16C0882311F096E911C037
:100D5000772321F09EE8872F762F05C0662371F058
:100D600096E8862F70E060E02AF09A95660F771F6C
:100D7000881FDAF7880F9695879597F9089597F960
:100D80009F6780E870E060E008959FEF80EC089531
:100D900000240A941616170618060906089500245A
:100DA0000A9412161306140605060895092E0394D4
:100DB000000C11F4882352F0BB0F40F4BF2B11F448
:100DC00060FF04C06F5F7F4F8F4F9F4F089557FDA7
:100DD0009058440F551F59F05F3F71F04795880FA9
:100DE00097FB991F61F09F3F79F087950895121640
:100DF00013061406551FF2CF4695F1DF08C01616EC
:100E000017061806991FF1CF86957105610508949C
:100E10000895E894BB2766277727CB0197F90895B3
:100E20000E9423070C94D6060E94C80638F00E9440
:100E3000CF0620F0952311F00C94BF060C94C50644
:100E400011240C940A070E94E70670F3959FC1F3E2
:100E5000950F50E0551F629FF001729FBB27F00D68
:100E6000B11D639FAA27F00DB11DAA1F649F6627BD
:100E7000B00DA11D661F829F2227B00DA11D621F0C
:100E8000739FB00DA11D621F839FA00D611D221FC6
:100E9000749F3327A00D611D231F849F600D211DAA
:100EA000822F762F6A2F11249F5750409AF0F1F02D
:100EB00088234AF0EE0FFF1FBB1F661F771F881F96
:100EC00091505040A9F79E3F510580F00C94BF0609
:100ED0000C940A075F3FE4F3983ED4F38695779528
:100EE0006795B795F795E7959F5FC1F7FE2B880F3C
:100EF000911D9695879597F90895A1E21A2EAA1B40
:100F0000BB1BFD010DC0AA1FBB1FEE1FFF1FA217B9
:100F1000B307E407F50720F0A21BB30BE40BF50BB6
:100F2000661F771F881F991F1A9469F7609570953F
:100F3000809590959B01AC01BD01CF010895EE0F06
:0E0F4000FF1F0590F491E02D0994F894FFCF67
:100F4E00000000006F01CF00FC00BC012D010B0161
:100F5E001F0143616E74206265205265667265736F
:100F6E0068656420617420676976656E20200020B4
:100F7E0020526566726573686564205261746520DF
:100F8E002C506C6561736520646563726561736571
:100F9E00205265667265736820526174652E000D6D
:020FAE000A0037
:00000001FF
